:020000040802F0
:10000000D050002039020208DB34020859030208EC
:10001000D93402085D0E0208A53D02080000000068
:100020000000000000000000000000004B02020879
:10003000910E020800000000A702020861360208C3
:100040005302020853020208530202085302020834
:100050005302020853020208530202085302020824
:100060005302020853020208530202085302020814
:100070005302020853020208530202085302020804
:100080005302020853020208530202086D0E0208CE
:10009000610E0208530202085302020853020208CA
:1000A00053020208530202085302020853020208D4
:1000B00053020208530202089D3702085302020845
:1000C00053020208530202085302020853020208B4
:1000D000530202085302020853020208F5390208CB
:1000E0005302020853020208530202085302020894
:1000F0005302020853020208530202085302020884
:100100005302020853020208530202085302020873
:100110005302020853020208530202085302020863
:100120005302020853020208530202085302020853
:10013000530202080000000000000000850E0208C3
:10014000790E020853020208530202085302020801
:100150005302020853020208530202085302020823
:100160005302020853020208530202085302020813
:1001700053020208530202080000000000000000C1
:10018000530202085302020800F002F800F045F89A
:100190000AA090E8000C82448344AAF10107DA45E2
:1001A00001D100F03AF8AFF2090EBAE80F0013F0EF
:1001B000010F18BFFB1A43F001031847B86F000086
:1001C000D86F0000103A24BF78C878C1FAD8520717
:1001D00024BF30C830C144BF04680C6070470000C1
:1001E0000023002400250026103A28BF78C1FBD840
:1001F000520728BF30C148BF0B6070471FB506F0DB
:1002000095FD00F0DBFD04000020002106F0F4F96C
:10021000401C60601FBD10B510BD00F093FD11467D
:10022000FFF7ECFF00F015FE00F0BAFD03B4FFF796
:10023000F2FF03BC00F0C6FD0948804709480047AB
:10024000FEE7FEE7FEE7FEE7FEE7FEE7FEE7FEE786
:10025000FEE7FEE704480549054A064B70470000E3
:100260008D37020889010208D04A0020D0500020B2
:10027000D04C0020D04C0020EFF3108072B67047B5
:1002800080F310887047424A1368012B04D04FF066
:10029000010313603F4A10603F4A11603F484FF02E
:1002A000805101607047EFF3108272B638480168E0
:1002B00051B34FF0000101603648016891B1EFF38E
:1002C00009811EF0100F08BF21ED108B21E9F00FFE
:1002D0004FF000041EF0100F08BF012441F8044D38
:1002E000006801602C490968096808C9B1E8F00F85
:1002F000002B18BFB1EC108B81F309884EF0100E63
:10030000002B18BF2EF0100E82F310884EF0040E52
:10031000704721490860EFF3148222F0040282F34F
:1003200014881C494FF00000086019494FF0010083
:1003300008601B481B49D0F8002041EA0201016017
:1003400016484FF08051016017480068006880F33C
:10035000088861B662B670471EF0040F0CBFEFF359
:100360000880EFF3098020E9F00F40F804ED40F831
:1003700004ED1EF0040F0CBF80F3088880F3098899
:1003800000B504F085FF5DF804EB4EF0040E7047F5
:100390008C000020840000208800002004ED00E094
:1003A00020ED00E00000FFFF08ED00E053EA020C42
:1003B00000F069802DE9F04B4FF00006002B1FBFC5
:1003C000B3FA83F503FA05F424FA05F65E4012BF8A
:1003D0001643B2FA82F502FA05F4C5F120051EBFF4
:1003E00022FA05FC44EA0C04203556EA044C4FEA94
:1003F000144418BF641C4FF000084FF000099042ED
:1004000071EB030C39D3002919BFB1FA81F701FA56
:1004100007F6B0FA80F700FA07F6C7F120071EBF0B
:1004200020FA07FC46EA0C062037B6FBF4FCA7EBE3
:100430000507103F07F01F0BCBF120060CFA0BFB52
:100440002CFA06F644BFB3460026202FA4BF5E4612
:100450004FF0000B5BEA060C08BF4FF0010B19EBE5
:100460000B09ABFB027C48EB0608C01B06FB02CC69
:100470000BFB03CC71EB0C01C1E70B460246414676
:100480004846BDE8F08B13B54FF000004FF0000177
:10049000AFF30080BDE81C40704700000FB400B50A
:1004A0008DB010A9099000910B904FF0FF300A9089
:1004B00000200C90064878440690064878446A4626
:1004C00007900F9909A800F049FA0DB05DF814FBE8
:1004D000C3040000DB0400002DE9FF5F1D464FF060
:1004E000FF3B91464FF000085F46D5E90146A969F8
:1004F00001987F1C8847296A824688470028F6D1E0
:10050000BAF1FF3F0CD0002E24F4C06419DD600660
:1005100014D5BAF12B0F09D0BAF12D0F0ED103E08B
:10052000584604B0BDE8F09F44F48064A96901987E
:100530007F1C8847761E8246002E02DDBAF1300FFE
:1005400003D0B9F1000F26D032E0A969761E0198D8
:100550007F1C44F400748847002E824605DDBAF102
:10056000780F06D0BAF1580F03D0B9F1000F10D0B0
:100570001EE0B9F1000F02D0B9F1100F18D1A9692E
:10058000761E01987F1C24F4007488478246102050
:1005900002E0082000E00A20814609E0A96908FB82
:1005A0000908761E01987F1C44F40074884782462F
:1005B000002E05DD4946504600F0BCF90028EDDA72
:1005C000E96901988847A00502D46FF00100A8E707
:1005D000E00725D1600613D5600502D5C8F10000FB
:1005E00000E0404629680A1D2A600968220501D5F5
:1005F000087015E0220701D5088011E008600FE0BF
:100600002868011D29600068210502D580F8008056
:1006100006E0210702D5A0F8008001E0C0F80080C4
:1006200038467EE740EA0103024630B59B0710D109
:100630004FF0013400E008C208C91D1B9D4315EAB4
:10064000C41FF8D013F0FF0102F8011B0DD01B0AE4
:10065000F8E711F8013B002B02F8013B05D011F837
:10066000013B002B02F8013BF3D130BD10B5431C18
:1006700002E010F8011B71B18107FAD14FF001328D
:1006800002C88C1A8C4314EAC211F9D0C01A0A06A7
:1006900003D0C01E10BDC01A10BD0A0401D0801EB8
:1006A00010BD0902FCD0401E10BD40EA010370B528
:1006B0009B072ED14FF00136042A2AD308C810C94F
:1006C0009D1B9D43121F15EAC61517D0D8B2E1B283
:1006D000401A50EA056110D198B2A1B2401A50EA0E
:1006E00005410AD123F07F4024F07F41401A50EAAF
:1006F000052102D1180EA0EB146070BDA342DBD01F
:1007000018BA21BA884201D9012070BD4FF0FF30DC
:1007100070BD0AB9002070BD10F8013B11F8014B03
:1007200063B1A3420AD1521E08D010F8013B11F860
:10073000014B1BB1A34201D1521EEDD1181B70BD5C
:10074000421E12F8013F002BFBD111F8013B002B98
:1007500002F8013BF9D17047032A40F2308010F0D3
:10076000030C00F0158011F8013BBCF1020F62444C
:1007700098BF11F801CB00F8013B38BF11F8013BDD
:10078000A2F1040298BF00F801CB38BF00F8013B8A
:1007900011F0030300F02580083AC0F0088051F8FA
:1007A000043B083A51F804CBA0E80810F5E7121D05
:1007B0005CBF51F8043B40F8043BAFF30080D20724
:1007C00024BF11F8013B11F801CB48BF11F8012BF0
:1007D00024BF00F8013B00F801CB48BF00F8012B13
:1007E000704710B5203AC0F00B80B1E81850203A9D
:1007F000A0E81850B1E81850A0E81850BFF4F5AFC1
:100800005FEA027C24BFB1E81850A0E8185044BF4A
:1008100018C918C0BDE810405FEA827C24BF51F8B7
:10082000043B40F8043B08BF7047D20728BF31F8AB
:10083000023B48BF11F8012B28BF20F8023B48BFFC
:1008400000F8012B70474FF000020429C0F012801D
:1008500010F0030C00F01B80CCF1040CBCF1020F73
:1008600018BF00F8012BA8BF20F8022BA1EB0C0148
:1008700000F00DB85FEAC17C24BF00F8012B00F83E
:10088000012B48BF00F8012B70474FF0000200B564
:10089000134694469646203922BFA0E80C50A0E8A3
:1008A0000C50B1F12001BFF4F7AF090728BFA0E851
:1008B0000C5048BF0CC05DF804EB890028BF40F81D
:1008C000042B08BF704748BF20F8022B11F0804F5F
:1008D00018BF00F8012B704710B5044610F0030F45
:1008E00008BF11F0030F40F015804FF0013E121FBA
:1008F000C0F20E8051F8043BA3EB0E0C2CEA030C63
:100900001CEACE1C08BF40F8043BF0D0A1F1040162
:1009100002F10402521E08DB11F8013B002B00F823
:10092000013BF7D11146FFF78EFF204610BD7047FF
:10093000704770473A2800D2303820F02002412A10
:1009400001D3A2F13700884201D34FF0FF30704746
:10095000026811441378016018467047D160054958
:1009600079445161044979441162002111611146B1
:1009700000F02EB8EDFFFFFF53000000426842B1C7
:10098000016811F8013B23B1521EC0E9001218465C
:1009900070470121C160881E704742685AB1C36820
:1009A000016843B983688B4205D0491E521CC0E9D7
:1009B0000012002070474FF0FF30704710B504461A
:1009C00000F0E6F90068005D00F0010010BD0000D5
:1009D0002DE9F34F4FF0000A0C4656468DB001202A
:1009E0000C9001F10C000B9062690B98012190476B
:1009F000051E2DD0252D2CD0216A8847C0B16269F3
:100A00000B9801219047216A88470028F7D1626935
:100A1000411E0B98904700E0761CA1690D9888470D
:100A2000216A88470028F7D1E1690D988847DBE7FC
:100A3000A1690D988847A842074601D1761CD3E7E3
:100A4000E1690D9888477F1C02D1BAF1000F6FD081
:100A50006CE162690B9800273D46394690472A2889
:100A600004D162690B98012190470125DFF8D082FB
:100A700062690B9801219047A0F130010A290AD23E
:100A80004745E5DC07EB870100EB4107303FDFD44A
:100A900045F01005ECE7E90601D46FF000476C283B
:100AA0000AD04C2814D0682815D06A280DD0742894
:100AB0001CD07A281AD01DE062690B98012190475A
:100AC0006C2802D045F0040514E045F002050DE065
:100AD00045F020050AE062690B98012190476828DB
:100AE00002D045F0080505E045F4006562690B9801
:100AF00001219047C4E9015765283DD019DC5828E9
:100B00007AD00CDC452837D004DC252826D04128B3
:100B10009ED131E046282FD0472899D12CE05B2880
:100B200077D0612828D063287CD0642823D15AE06C
:100B3000F7E06F2848D008DC66281DD067281BD056
:100B4000692821D06E2816D127E0702845D0732857
:100B500068D0752847D078280DD14DE0A1690D984F
:100B60008847252805463FF469AFE1690D98884715
:100B70006D1C3FF46AAFD9E00D9923466A466FF0C9
:100B80000100AFF30080C6E045F0400023464FF07F
:100B900000026060A80736D43EE0E8077FF447AF64
:100BA0002068011D21600068290501D506701BE73A
:100BB000290701D5068017E7A90703D5F117C0E972
:100BC000006111E706600FE745F0400023464FF053
:100BD00008026060A80716D41EE040F60E0125EA60
:100BE0000100606016E045F0400023464FF00A0225
:100BF0006060A80707D40FE045F040006060A807D8
:100C000008D5234610220D996FF00100AFF3008044
:100C100081E007E0102223460D996FF00100FFF7F5
:100C20005BFC78E04FF0000963284F46C8464B460E
:100C3000CB4602D05B2807D039E02079C00601D42A
:100C40000120A060012732E06269D4F80CB00B9853
:100C5000012190475E2807D14FF00109494662699A
:100C6000D4F80CB00B989047216939B900210A4695
:100C700003AB43F82120491C0829FADBD8B32169CA
:100C800049B308F1010862690B98012190475D287A
:100C9000F4D1B9F1000F09D0002003A951F82020A8
:100CA000D24341F82020401C0828F7DB03AB206921
:100CB000002820794FEA40701ED05B462246CDF8CE
:100CC0000080CDE901970D9900286FF0010020DA2E
:100CD000AFF300801FE0C11703AA00EBD1614B11F5
:100CE00021F01F0102EB8302411A136801208840A2
:100CF00003431360C7E719E00D99224600286FF0FF
:100D00000100009702DAAFF3008004E0AFF3008047
:100D100001E0AFF3008000280ADA401C06D10C98ED
:100D200020B14FF0FF300FB0BDE8F08F5046FAE72A
:100D3000E90701D10AF1010A064400200C9053E6AC
:100D4000CCCCCC0C754600F035F8AE4605006946B3
:100D5000534620F00700854618B020B5FFF77AFA11
:100D6000BDE820404FF000064FF000074FF00008AC
:100D70004FF0000B21F00701AC46ACE8C009ACE82D
:100D8000C009ACE8C009ACE8C0098D467047000056
:100D900010B500F013F8001D10BD00BF5D58000035
:100DA00010B50446AFF300802046BDE81040FFF7C1
:100DB0003DBA000000487047704A00200048704764
:100DC000904A002001491820ABBEFEE72600020031
:100DD0004FF0013C50F8042B51F8043B9A4221D1CA
:100DE000A2EB0C03934313EACC1317D150F8042B56
:100DF00051F8043B9A4215D1A2EB0C03934313EA3A
:100E0000CC130BD150F8042B51F8043B9A4209D172
:100E1000A2EB0C03934313EACC13DBD04FF000009A
:100E2000704700BFD01A01BAB1FA81F101F0180180
:100E300022FA01F0CB40C1F12001DBB2C0B2C01AEE
:100E40002CFA01F3D11A914311EAC311E6D170478C
:100E5000704710B505F0DCFA002010BDFEE7000079
:100E6000014800F098BB0000F4400020014800F069
:100E700092BB0000F4400020014800F08CBB000051
:100E80001C410020014800F086BB00001C410020EE
:100E9000704772B6FEE7000070B5134C054600209F
:100EA0006070A07003291DD3681810F8052C2A2A39
:100EB00018D10122491F07E0AB5C1E0612D48BB18A
:100EC000A6787340A370521C8A42F5DB064A07A13C
:100ED000521C001FFFF7E2FA6078A178884201D126
:100EE000012070BD002070BDAC00002025303268AC
:100EF000687800000149C87070470000AC0000200D
:100F00002DE9F0432DED0A8BC41D87B01546002650
:100F1000DFF848929FED92BB9FED938BB2EE049A5F
:100F2000DFED939AA9F114089FED92AA01A803E0BE
:100F3000012700F8011B641C21782C29F8D1002F0F
:100F40004CD00027092E49D2DFE806F0051A4649A1
:100F500075787C83A20005F12F00431E821E00904D
:100F600085A101A8FFF79AFA95F82D0018210830FD
:100F7000B0FBF1F201FB120085F82D00012685E09F
:100F8000764B81A11B1F1A1F01A8CDF80090FFF717
:100F900085FA4646D8F8140005F076FD53EC1B2B75
:100FA00005F01AFC41EC1C0B306905F06DFD53ECAB
:100FB0001C2B05F069FB53EC182B05F00DFC41ECE4
:100FC0001C0BF06805F060FD53EC1C2B05F05CFB7E
:100FD0000226C5E9040159E00078687098E05F4B8B
:100FE0006CA11B1F1A1F01A8CDF80090FFF756FA3D
:100FF0004646D8F8140005F047FD53EC1B2B05F0CE
:10100000EBFB41EC1C0B306905F03EFD53EC1C2B57
:1010100005F03AFB53EC182B05F0DEFB41EC1C0B02
:10102000F06805F031FD53EC1C2B05F02DFB042678
:10103000C5E902012AE00078A87069E0007885F827
:10104000310065E005F1290255A101A8FFF726FA54
:101050005EE0424B54A1A3F1080201A8FFF71EFA7B
:10106000D8F80C10D8F8140001EBC10202EB011102
:1010700000EB810005F008FD9FED4D1B53EC112B9B
:1010800005F0AAFB05F0CEFA08266862641C4DE75D
:10109000324B49A1A3F1080201A8FFF7FFF99DF81F
:1010A0000400D8F814102D28404609D00A294169B7
:1010B00038D200EE101AB8EE400AC0EE090A45E038
:1010C0000A29416906D200EE101AB8EE400AC0EEB5
:1010D000090A13E00A290AD34169642907D2416940
:1010E00000EE101AB8EE400AC0EE290A06E0416987
:1010F00000EE101AB8EE400AC0EE0A0AC06800EE10
:10110000100AB8EE400A30EE600A00BF85ED080A0A
:10111000641C761C092EBADB07B00120BDEC0A8BDB
:10112000BDE8F0830A290AD34169642907D24169DD
:1011300000EE101AB8EE400AC0EE290A06E0416936
:1011400000EE101AB8EE400AC0EE0A0AC06800EEBF
:10115000100AB8EE400A30EE800AD7E7C00000203F
:101160000000000080842E410000000000004E407E
:101170000000C84200007A4425326868752532684C
:1011800068752532686875002532752532752E25FB
:10119000367500002533752532752E25367500000D
:1011A00025326868750000002533752E25327500DC
:1011B000000000000000594025642E253375000012
:1011C0002DE9F043C41DDFF8E08085B09146054667
:1011D0000026684604E000BF012700F8011B641CDC
:1011E00021782C29F8D19FB300278EB3012E52D03D
:1011F000022E50D16878472808D0422816D04728B8
:1012000009D049281ED047280AD028E0A8784128CC
:101210000AD042280DD0A87850280DD051280ED0E1
:10122000A8784C2815D01AE01F4A14E0A878442862
:1012300015D108F101020EE008F102020BE008F1FD
:10124000030208E0A878522809D108F1040202E05C
:1012500021E008F1050215A16846FFF71FF998F88B
:10126000001098F80120114498F8022098F80330F3
:101270001A44114498F80420114498F805201144A8
:1012800098F80620114498F8072098F808001144AF
:10129000084489F82800641C761C092E99DB05B0E7
:1012A0000320BDE8F0830000104900202568687520
:1012B000000000002DE9F047284C9046894625891A
:1012C0000646E078002710B1012834D13AE022899F
:1012D000234901F16400FFF784FA2770204829466A
:1012E0006430FFF7D9FD68B31D48294664303246A3
:1012F000C378472B04D0522B10D0472B03D01AE0D1
:101300000379472B03D00379532B11D013E0437992
:10131000412B10D1BDE8F047FFF7F2BD03794D2B0B
:1013200009D14379432B06D1BDE8F04700F020B83E
:101330004379562B02D00020BDE8F087BDE8F04786
:10134000FFF73EBF228906494846FFF705FAB8F184
:10135000000F00D127702846EEE70000AC00002007
:10136000484800200148806C00470000F8470020F2
:101370002DE9F0432DED088BC51D87B014460026DE
:10138000DFF8C8919FED728B9FED739BA9F1140854
:101390009FED73BA01A803E0012700F8011B6D1C43
:1013A00029782C29F8D1002F24D00027092E21D20A
:1013B000DFE806F0051A234F5380849EC10004F134
:1013C0002F00431E821E009066A101A8FFF766F859
:1013D00094F82D0018210830B0FBF1F201FB120047
:1013E00084F82D00012663E09DF80400412802D016
:1013F0000020207095E00120FBE7544B5DA11B1FEE
:101400001A1F01A8CDF80090FFF748F84646D8F813
:10141000140005F039FB53EC182B05F0DDF941EC15
:101420001A0B306905F030FB53EC1A2B05F02CF940
:1014300053EC192B05F0D0F941EC1A0BF06805F0CC
:1014400023FB53EC1A2B05F01FF90326C4E9040112
:101450002EE09DF80400607063E03C4B48A11B1F28
:101460001A1F01A8CDF80090FFF718F84646D8F8E3
:10147000140005F009FB53EC182B05F0ADF941EC15
:101480001A0B306905F000FB53EC1A2B05F0FCF841
:1014900053EC192B05F0A0F941EC1A0BF06805F09C
:1014A000F3FA53EC1A2B05F0EFF80526C4E9020114
:1014B0006D1C6FE79DF80400A07032E0234B33A150
:1014C000A3F1080201A8FEF7E9FFD8F81410D8F834
:1014D0000C0000EE101AB8EE400AC0EE0B0A00EE47
:1014E000100AB8EE400A30EE800A84ED070A18E0D0
:1014F000164B26A1A3F1080201A8FEF7CFFFD8F8EA
:101500001410D8F80C0000EE101AB8EE400AC0EE25
:101510000B0A00EE100AB8EE400A30EE800A84EDA5
:10152000060A6D1C761C092EC3DB07B00220BDEC39
:10153000088BBDE8F08304F12A00431C821C009054
:1015400008A101A8FEF7AAFFEFE70000C0000020F5
:101550000000000080842E410000000000004E408A
:101560000000C842253268687525326868752532E2
:10157000686875002532752532752E253675000090
:101580002533752532752E253675000025752E25D7
:101590003275000070472DE9F05F054600680024B1
:1015A0004669D0F804908768D0F80CB0D0F810A045
:1015B000D0F81880F10748D0F90714D001218160D4
:1015C000B80703D5284600F009FA0CE0780702D5E1
:1015D0004FF4006407E0380702D54FF4805402E06E
:1015E000284600F0FAF9F80516D529684FF48070FE
:1015F0008860B80503D5284600F0F2F90CE07805BC
:1016000002D544F4005407E0380502D544F4804480
:1016100002E0284600F0E3F9F80316D529684FF4F4
:1016200080308860B80303D5284600F0DBF90CE071
:10163000780302D544F4004407E0380302D544F4AB
:10164000803402E0284600F0CCF9300707D55FEA85
:10165000CB6004D52968102044F40074C86070077A
:101660004FF0080707D55FEA0B7004D52868C760FC
:10167000284600F0ADF9B00706D52868C068800795
:1016800002D0284600F0A5F9700607D55FEACA60C7
:1016900004D52968102044F480640861B00607D599
:1016A0005FEA0A7004D528680761284600F092F9BD
:1016B000F00606D528680069800702D0284600F0A9
:1016C0008AF9B00308D55FEAC96005D529681020FA
:1016D0004860284600F080F9F00307D55FEA0970FA
:1016E00004D528684760284600F07DF9300446D5C7
:1016F0005FEA497040D5F00504D55FEAC87001D0B3
:1017000044F00104B00504D55FEA887001D544F0C7
:101710000204700504D55FEA487001D544F0040462
:10172000300529D518F0700F26D008F07000402839
:1017300015D006DC102809D020280AD0302816D170
:101740000AE050280ED0602811D10EE044F00804C1
:101750000DE044F010040AE044F0200407E044F0F7
:10176000400404E044F0800401E044F480742868FC
:10177000816921F070018161296804204860002C92
:1017800005D0686A204368622846FFF703FFBDE87A
:10179000F09F70B5040003D094F8200010B104E06D
:1017A000012070BD204600F081F82068016841F0FA
:1017B0000101016000F0DCFA0546052604E000F0B6
:1017C000D7FA401B0A2811D820684068C007F6D015
:1017D0002068016821F00201016000F0C9FA0546A5
:1017E0000BE000F0C5FA401B0A2806D9606A40F4F5
:1017F0000030606284F82060D2E72068406880078B
:10180000EFD4207E0128206801683DD021F08001BE
:101810000160607E01282068016838D021F0400115
:101820000160A07E01282068016833D021F02001EA
:101830000160E07E0128206801682ED041F010018F
:101840000160207F01282068016829D021F008016B
:101850000160607F01282068016824D021F0040124
:101860000160D4E902010843D4E90412114308439A
:101870006168491E08432168C86100206062012038
:1018800084F82000002070BD41F08001C0E741F0E5
:101890004001C5E741F02001CAE721F01001CFE780
:1018A00041F00801D4E741F00401D9E72DE9F04304
:1018B00087B0044614216846FEF7E7FF404B4148D5
:1018C000DFF8F8801968D4F800C03E4A02250326E4
:1018D0000927DFF8F49010300024491CC4452CD1AE
:1018E0001960012907D1016841F0007101600068A9
:1018F00000F000700590106840F002001060106861
:1019000002AB00F0020005904FF44070CDE90005F5
:1019100083E8D0006946484600F02CF900221146C1
:10192000132000F0CFFA132000F0BFFA0022114676
:10193000142000F0C7FA14203AE0DFF89080C44584
:1019400038D1D0F800C04CF0806CC0F800C0D0F89E
:1019500000C001290CF0806CCDF814C0196007D1CB
:10196000016841F000710160006800F000700590AE
:10197000106840F002001060106802AB00F0020036
:1019800005906020CDE9000583E8D000694648460F
:1019900000F0F0F8002211463F2000F093FA3F20BB
:1019A00000F083FA00221146402000F08BFA40201C
:1019B00000F07BFA07B0BDE8F0830000006400404F
:1019C000A8000020303802400004024000680040B7
:1019D000704770477047704770477047704770474F
:1019E000704770477047704770B5044600F0C0F903
:1019F0000546601C02D004480078044400F0B8F9A1
:101A0000401BA042FAD370BD000000202DE9F04F2A
:101A10000022DFF838B101264FF00F0906FA02F470
:101A200001EA0403A3427DD122F003075F44D7F803
:101A3000088895074FEA157C09FA0CFA0AEA0805A6
:101A4000DFF80C81404502D14FF0000832E0DFF8AA
:101A50000481404502D14FF001082BE0DFF8F88007
:101A6000404502D14FF0020824E0DFF8F080404505
:101A700002D14FF003081DE0DFF8E480404502D1B9
:101A80004FF0040816E0DFF8DC80404502D14FF04B
:101A900005080FE0DFF8D080404502D14FF006087E
:101AA00008E0DFF8C880404502D14FF0070801E0A8
:101AB0004FF0080808FA0CF8A84522D12C4DD5F8AB
:101AC00000C02CEA030CC5F800C005F1040CDCF8DA
:101AD00000509D43CCF80050254D0C35D5F800C082
:101AE0002CEA030CC5F800C02D1FD5F800C02CEA65
:101AF000030CC5F800C0D7F8085825EA0A05C7F84E
:101B00000858056857000323BB409D430560D5086E
:101B100000EB8505D5F820C057074FEAD76809FACA
:101B200008F700E00CE02CEA070CC5F820C0C568F7
:101B30009D43C5604568A543456084689C438460B7
:101B4000521C102AFFF46AAFBDE8F08F003001404C
:101B5000000002400004024000080240000C024065
:101B6000001002400014024000180240001C024015
:101B7000003C01402DE9F84FDFF8BCA1002201250F
:101B800003264FF00F090AF1040BAAF1040E00BF5F
:101B90000B6805FA02F42340A34270D10F7907F0D5
:101BA0000307012F01D0022F16D187684FEA4208A0
:101BB00006FA08FC27EA0C07D1F80CC00CFA08FC5E
:101BC0004CEA070CC0F808C04768A7430C79C4F377
:101BD000001494403C4344600C79E443A4070AD0C9
:101BE000C4684FEA420C06FA0CF7BC438F6807FA48
:101BF0000CF72743C7600C7904F00304022C12D1C0
:101C0000D40800EB840CDCF820405707FF0E09FADB
:101C100007F824EA0804D1F8108008FA07F848EA1F
:101C20000408CCF8208004684FEA420C06FA0CF74E
:101C3000BC430F7907F0030707FA0CF72743076047
:101C40004C6814F4403F70D03C4C276847F4804700
:101C50002760246822F0030704F480440094384C81
:101C600007EB040CDCF8084897074FEA177809FAE5
:101C700008F7BC43334FB84202D1002724E054E0B8
:101C8000314FB84201D101271EE0304FB84201D197
:101C9000022719E02E4FB84201D1032714E02D4F3F
:101CA000B84201D104270FE02B4FB84201D10527DC
:101CB0000AE02A4FB84201D1062705E0284FB84272
:101CC00001D1072700E0082707FA08F72743CCF8D7
:101CD0000878DAF800405746D1F804C09C435FEA20
:101CE000CC2C00D51C433C60DBF800405F46D1F8AB
:101CF00004C09C435FEA8C2C00D51C433C60DEF89A
:101D000000407746D1F804C09C435FEA8C3C00D584
:101D10001C433C60084F083F3C68D1F804C09C431A
:101D20005FEACC3C00D51C433C60521C102AFFF4F7
:101D30002FAFBDE8F88F0000083C01404438024056
:101D40000030014000000240000402400008024050
:101D5000000C024000100240001402400018024033
:101D6000001C02400AB1816170470904FBE70000D2
:101D70000148806870470000000000200248816828
:101D80000278114481607047000000200B4810B5B4
:101D9000016841F400710160016841F480610160F3
:101DA000016841F480710160032000F0ABF80F205E
:101DB00000F006F800F050F8002010BD003C024092
:101DC00030B505461F4887B00024016841F0040182
:101DD0000160006806A900F00400009001A800F06E
:101DE00087FA0498A8B100F0A9FA40001649174AEA
:101DF000B0FBF1F11648491E026040F2E732C0E93B
:101E00000324C0E90114846100F0DBFE040003D068
:101E100015E000F093FAE9E70D4800F001FF040037
:101E20000DD11E2000F041F8102D07D200222946C6
:101E30001E2000F047F80748056000E0012407B0C5
:101E4000204630BD4038024040420F0000080040AC
:101E5000CC000020040000200A4808B5016841F4C5
:101E600080410160006800F4804000900548001F38
:101E7000016841F080510160006800F080500090DE
:101E800008BD00004438024000280DDB00F01F02AE
:101E9000012191404009800000F1E020C0F880114C
:101EA000BFF34F8FBFF36F8F7047002809DB00F03F
:101EB0001F02012191404009800000F1E020C0F89C
:101EC00000117047F0B40E4B1B680C46C3F302239D
:101ED000C3F10705042D00D90425191D072901D2D6
:101EE000002300E0DB1E012606FA05F1491E214011
:101EF00099409E40761E16403143F0BC01F053BF1E
:101F00000CED00E0064900F0070208684FF6FF03F9
:101F1000184040EA0220034A10430860704700005E
:101F20000CED00E00000FA052DE9F0418AB0040054
:101F300005D094F8BD042668002520B108E00120F2
:101F40000AB0BDE8F08184F8BC54204600F05EF889
:101F5000032084F8BD04F06BC00500D4256120681F
:101F600001F0AEFE04F11001282288466846FEF713
:101F700038FC94E80F0001F081FD0226C8BB002167
:101F8000206801F0E1FE002001270EE000EBC00117
:101F900004EB810181F83D7001F83C0F08810D715F
:101FA000CD600D61401CC0B28D6161688142EDD889
:101FB000002011E000EBC00104EB810181F87D52AB
:101FC00081F87C0281F88052C1F88852C1F88C52A5
:101FD000401CC0B2C1F8945261688142EAD82822FC
:101FE00041466846FEF7FDFB94E80F0001F0AEFDA8
:101FF00010B184F8BD64A2E784F8385084F8BD7449
:10200000206801F095FD00209AE7000010B586B029
:10201000044614216846FEF738FC2068B0F1A04F52
:1020200027D115480021026842F0010202600068D1
:1020300000F0010005904FF4C05000900220CDE95F
:102040000101032003900A20049069460B48FFF722
:1020500091FD0948001D016841F0800101600648BA
:102060001430016841F480410160006800F4804050
:10207000059006B010BD000030380240000002405C
:102080002DE9F843054600684FF00109C1074FF0FC
:10209000000601D1400727D5DFF80C81C8F8686039
:1020A000FFF766FE0746414C05E000BFFFF760FE04
:1020B000C01B022857D820680001F7D46868810146
:1020C000287A41EA0070394984310860C8F868907C
:1020D000FFF74EFE074604E0FFF74AFEC01B02284A
:1020E00041D820680001F7D52878800752D52F48BD
:1020F0004030016841F08051016000682C4C00F0D4
:1021000080500090206840F480702060FFF730FE1F
:10211000074604E0FFF72CFEC01B022823D82068E6
:10212000C005F7D5214C7034206810F4407020D0E1
:10213000A98901F4407181421BD020681D4920F417
:102140004070C1F800900E6020602068C00710D079
:10215000FFF70EFE064641F2883707E0FFF708FE5C
:10216000801BB84202D90320BDE8F88320688007AD
:10217000F4D5E9680D48C1F301220830032A0BD0D9
:10218000016821F4F81101602068A989C1F30B01ED
:10219000084320600020E7E70268074B22F4F812AA
:1021A00019400A430260EFE700004742003802404E
:1021B00000700040400E4742FFFCFF0F2DE9F04742
:1021C0000E46050065D0DFF81481D8F80000F7B29C
:1021D00000F00700B04207D288F80070D8F800007D
:1021E00000F00700B04254D128683D4C810712D559
:1021F000400703D5206840F4E050206028780007AD
:1022000003D5206840F4604020602068A96820F071
:10221000F000084320602878C0072DD03049686856
:102220000839012812D0022813D0032811D00968D8
:10223000890700292DDA216821F00301014321607B
:10224000FFF796FD814641F2883A0EE0096889035E
:10225000EFE709688901ECE7FFF78AFDA0EB0901C8
:10226000514502D90320BDE8F0872068696800F075
:102270000C00B0EB810FEFD1D8F80010404601F010
:102280000701B14207D90770006800F00700B042AB
:1022900001D00120E7E72878400705D52068E968E4
:1022A00020F4E050084320602878000706D5206815
:1022B000296920F4604040EAC100206000F05EF827
:1022C0002168084AC1F30311515CC84006490860FF
:1022D00006480068FFF774FD0020C4E7003C024098
:1022E00008380240406D02080C0000200400002065
:1022F0000F2202600C4A136803F003034360136863
:1023000003F0F0038360136803F4E053C3601268C2
:102310004FF4E05303EAD20202610448006800F07F
:10232000070008607047000008380240003C024087
:1023300001480068704700000C000020044805496F
:1023400000680968044AC1F38221515CC8407047A3
:102350000C00002008380240506D0208044805496E
:1023600000680968044AC1F34231515CC8407047B3
:102370000C00002008380240506D0208154810B5C6
:10238000006810F00C02144813D01449042A0FD02E
:10239000082A0ED10F4C241F2268236802F03F0246
:1023A0005B0207D52068C0F38810A0FB010106E09E
:1023B000084610BD2168C1F38811A1FB000100236C
:1023C000FDF7F4FF2168C1F30141491C4900B0FB4E
:1023D000F1F010BD083802400024F40040787D017F
:1023E0002DE9F84F04006ED02078DFF84C93C00739
:1023F000A9F104054AD009F104000168C1F3810183
:10240000012908D00068C0F3810002280AD1D9F858
:102410000000400206D52868800337D56068002890
:10242000E1D033E06068B0F5803F10D0B0F5A02F68
:10243000286810D020F480302860286820F480209C
:1024400028606068A8B1FFF793FC06460DE0286895
:1024500040F48030F4E740F480202860F7E700BFC4
:10246000FFF786FC801B642873D828688003F7D5A3
:102470000CE0FFF77DFC064605E000BFFFF778FCA7
:10248000801B6428F0D828688003F7D42078DFF810
:10249000AC8280074FF0000A3ED5A748001D0168B6
:1024A00011F00C0F08D00068C0F3810002280BD196
:1024B000D9F80000400207D42868800716D5E068E4
:1024C000012800D112E033E1E068B8B10120C8F87A
:1024D0000000FFF74DFC064605E000BFFFF748FC93
:1024E000801B0228C0D828688007F7D52868216992
:1024F00020F0F80040EAC10028600DE0C8F800A014
:10250000FFF736FC064604E0FFF732FC801B02288A
:102510001FD828688007F7D42078000722D5864F77
:1025200087486169703771B101210160FFF720FCB4
:10253000064604E0FFF71CFC801B022809D8386817
:102540008007F7D50EE0C0F800A0FFF711FC0646A3
:1025500005E082E0FFF70CFC801B02287DD838687C
:102560008007F7D42078400768D5DFF8CCB1002782
:102570000BF13C0BDBF80000C0000BD4DBF80010C3
:1025800041F08051CBF80010DBF80000012700F08B
:10259000805000906B4E3068C00510D4306840F415
:1025A00080703060FFF7E4FB009005E0FFF7E0FB90
:1025B0000099401A022850D83068C005F6D55E4E02
:1025C000A0686C3601280FD00528306810D020F0A4
:1025D00001003060306820F004003060A068B8B1BD
:1025E000FFF7C6FB00900FE0306840F00100F4E711
:1025F00040F004003060F7E7FFF7BAFB0099411A9A
:1026000041F28830814266D830688007F4D50EE008
:10261000FFF7AEFB009007E0FFF7AAFB0099411A15
:1026200041F28830814256D830688007F4D42FB107
:10263000DBF8001021F08051CBF80010A069C8B37E
:102640003D49091D0968C1F3810102294AD00228C8
:10265000504607D0C8F8600000E03CE0FFF788FB78
:1026600004463BE04746C8F86000FFF781FB06469A
:1026700005E000BFFFF77CFB801B02282BD82868F1
:102680008001F7D4D4E907010843A16A2E4A49081A
:1026900002EB0141626A41EA8211084394F82C106E
:1026A00040EA0161C9F8001001203866FFF760FBBD
:1026B000044606E03EE000BFFFF75AFB001B02287D
:1026C00009D828688001F7D534E000BFFFF750FB38
:1026D000001B022802D90320BDE8F88F286880017A
:1026E000F4D427E00128F7D0D9F80000E26900F41B
:1026F000800191421CD1226A00F03F01914217D122
:1027000047F6C071626A0140B1EB821F10D1A26A24
:102710004FF0FF3300F4403103EB5202B1EB024FB4
:1027200006D194F82C1000F07060B0EB016F01D06E
:102730000120D1E70020CFE70438024000004742E3
:10274000800E4742007000400000FFFF10B50400FB
:1027500002D0607F10B106E0012010BD002020777C
:10276000204600F039F8022060772168CA204862CC
:10277000216853204862204600F0B0FE30BB20683C
:102780008168144A1140816021688868626810433A
:10279000D4E904231A43104388602168E068086183
:1027A00020680169228941EA02410161204600F066
:1027B000B9FE58B921680A6C22F480220A642168A3
:1027C0000A6CA3691A430A64012161772268FF2118
:1027D000516210BDBFFF8FFF1FB500210091019115
:1027E000029103910068084988420CD102200090B0
:1027F000C00103906846FFF743FC08B1FEF749FBB0
:102800000249012008601FBD002800403C0E4742DD
:1028100070B504460068C16821F0A001C160FFF7EF
:10282000A7FA05464FF47A7607E000BFFFF7A0FA53
:10283000401BB04201D9032070BD2068C0688006EB
:10284000F4D5002070BD70B5040009D0606A002581
:1028500040B125616561A56294F8510040B10CE07A
:10286000012070BD6068B0F5827FF4D0E561F2E7C9
:1028700084F85050204600F045F8022084F85100BA
:102880002068016821F040010160A088218900F4DE
:10289000827001F404410843A18901F400610843F6
:1028A000217C01F002010843217D01F00101084370
:1028B000218B01F400710843217F01F038010843A6
:1028C00094F8201001F080010843218D01F400519B
:1028D000084321680860A069042101EA104094F8C7
:1028E000241001F010010843216848602068C16984
:1028F00021F40061C1616565012084F85100002068
:1029000070BD000070B586B0044614216846FDF71E
:10291000BCFF234E22680021224802230324052500
:10292000B2421AD11F4A1432166846F48056166015
:10293000126802F480520592026842F001020260BD
:10294000006802AA00F00100059082E83200E02051
:10295000CDE90003694614481DE0144EB2421CD173
:10296000104A1032166846F480461660126802F467
:1029700080420592026842F002020260006802AAE8
:1029800000F00200059082E832004FF46040CDE98B
:10299000000369460648FFF7EDF806B070BD000079
:1029A0000030014030380240000002400038004052
:1029B000000402402DE9F84F044690F8500000272B
:1029C0000A9E1D4692468B464FF0010901280ED003
:1029D000012084F85000FFF7CBF9804694F85100AD
:1029E000616801280CD0B1F5827F07D102E0022096
:1029F000BDE8F88FA16809B9042801D00227C2E018
:102A0000BBF1000F27D0BAF1000F24D01DB394F80A
:102A10005100042802D0052084F851000020606590
:102A2000C4F838A0E587A587C4F830B0E586A58648
:102A30002064606420680168490603D4016841F09D
:102A400040010160E068B0F5006F606805D0E8B350
:102A5000012D46D07FE0012795E008B1012D39D145
:102A6000206B21680088C860206B801C2063E08E8A
:102A7000401EE0862EE02068816889070FD5E18E30
:102A800069B1B9F1010F0AD1216B0988C160206BCE
:102A9000801C2063E08E401EE0864FF00009206815
:102AA0008168C9070CD0E18F51B1C068A16B088063
:102AB000A06B801CA063E08F401EE0874FF00109EF
:102AC000FFF756F9A0EB0800B04200E009E001D39F
:102AD000701C50D1E08E0028CDD1E08F0028CAD1E3
:102AE0003FE0206B216800780873206B401C206356
:102AF000E08E401EE0862EE02068816889070FD5B1
:102B0000E18E69B1B9F1010F0AD1216B0978017326
:102B1000206B401C2063E08E401EE0864FF00009D1
:102B200020688168C9070CD0E18F51B1C068A16BE2
:102B30000870A06B401CA063E08F401EE0874FF040
:102B40000109FFF715F9A0EB0800B04202D3701C91
:102B500001D010E07EB1E08E0028CDD1E08F0028BA
:102B6000CAD142463146204600F0F2FC28B1012786
:102B70002020606507E0032705E0A06818B92068F9
:102B8000C16880680090012084F85100002084F81A
:102B9000500038462CE710B5401EB0F1807F01D3BD
:102BA000012010BD4FF0E02460610F21601701F09B
:102BB000FAF80020A06107202061002010BD7047B6
:102BC000704710B5040003D094F83D0010B107E041
:102BD000012010BD002084F83C00204600F01EF8C3
:102BE000022084F83D00211D206800F0DDFD012059
:102BF00084F8460084F83E0084F83F0084F84000E2
:102C000084F8410084F8420084F8430084F84400CA
:102C100084F8450084F83D00002010BD7047000096
:102C200090F83D10012901D001207047022180F861
:102C30003D100168CA6842F00102CA60006811498B
:102C4000884214D0B0F1804F11D00F4988420ED085
:102C50000E4988420BD00E49884208D00D4988425F
:102C600005D00D49884202D00C49884204D18168C0
:102C700001F00701062903D0016841F0010101605C
:102C800000207047000001400004004000080040A0
:102C9000000C0040000401400040014000180040CA
:102CA000704770B50446006801694FF00005C943DC
:102CB000890715D4C168C943890711D4E91E016188
:102CC00001202077206880698007204602D0FFF726
:102CD000E7FF04E000F098F8204600F096F825772A
:102CE00020680169C943490717D4C168C943490726
:102CF00013D46FF0040101610220207720688069FD
:102D000010F4407F204602D0FFF7CAFF04E000F035
:102D10007BF8204600F079F8257720680169C943DF
:102D2000090716D4C168C943090712D46FF0080116
:102D30000161042020772068C0698007204602D006
:102D4000FFF7AEFF04E000F05FF8204600F05DF80A
:102D5000257720680169C943C90617D4C168C943EA
:102D6000C90613D46FF01001016108202077206894
:102D7000C06910F4407F204602D0FFF791FF04E0C5
:102D800000F042F8204600F040F8257720680169FD
:102D9000C943C90708D1C168C943C90704D1891EFD
:102DA0000161204600F032F820680169C943090634
:102DB00009D4C168C943090605D46FF080010161D7
:102DC0002046FFF7FCFE20680169C943490609D483
:102DD000C168C943490605D46FF04001016120462E
:102DE00000F01EF820680169C94389060BD4C16848
:102DF000C943890607D46FF0200101612046BDE870
:102E00007040FFF7DDBE70BD704770470068034932
:102E1000884201D1FEF7B2BF7047000000080040B1
:102E2000704770B5040004D094F83D00002510B13F
:102E300006E0012070BD84F83C50204600F054F8B4
:102E4000242084F83D002068C16821F40051C1604D
:102E5000204600F00DFD2068016921F490410161D8
:102E60002068416921F02A0141612068C16841F46C
:102E70000051C1602564202084F83D0084F83E00A4
:102E8000002070BD1249026812488A4207D11249D7
:102E90000A6822F010020A604FF4C06114E00E4983
:102EA0000E4B091F9A4205D10A6822F400320A60CB
:102EB0000C2109E00A48824208D1086820F48020E9
:102EC00008604FF440610748FEF7A0BD704700005E
:102ED000001001400000024044380240004400401D
:102EE0000048004000040240F0B587B004461421B9
:102EF0006846FDF7CAFC304B276800222F490224A0
:102F0000032507262E489F4219D12C4B14331F68E6
:102F100047F010071F601B6803F0100305930B6850
:102F200043F001030B60096802AB01F00101059158
:102F30006902CDE9001483E8640069461AE01F4B7A
:102F4000DFF880C01033674518D11F6847F4003799
:102F50001F601B6803F4003305930B6843F0010303
:102F60000B60096801F0010105910C21CDE9001405
:102F700069461CE0FEF7FEFD07B0F0BD124887422F
:102F8000FAD1186840F480201860186800F4802096
:102F90000590086840F0020008600868694600F083
:102FA000020005904FF44060CDE90004074802AFED
:102FB00087E86400DEE7000000100140303802407E
:102FC000000002400044004000480040000402406D
:102FD0002DE9F843044690F83D001F4616460D467D
:102FE00020284CD1C5B1BEB194F83C00012846D090
:102FF000012084F83C004FF00008C4F840802120F4
:1030000084F83D00FEF7B4FEA6848146E684A068FD
:10301000B0F5805F03D004E00120BDE8F8832069AB
:1030200028B12E465FF0000584F83C800EE00026B3
:10303000FAE78021204600F0A1FCA0B9AEB116F855
:10304000010B21684860E08C401EE084E08C4B4618
:103050004FF0000200970028EBD14FF040012046CE
:1030600000F08CFC30B10320D7E735F8020BC0F339
:103070000800E6E7202084F83D000020CDE702208C
:10308000CBE70000104810B50E4901600C214160EB
:1030900000214FF08072C0E902124FF44032026109
:1030A0004FF480124261017641768176C1760177D4
:1030B0004177FEF76EFB002803D0BDE81040FDF716
:1030C000E8BE10BD00640040F4400020104810B578
:1030D0000E4901600C21416000214FF08072C0E96F
:1030E00002124FF4403202614FF4801242610176C5
:1030F00041768176C17601774177FEF74AFB002859
:1031000003D0BDE81040FDF7C4BE10BD006800400C
:103110001C4100202DE9F04F87B014216846FDF7CF
:10312000B4FB54480024016841F0040101600168C7
:1031300001F004010591016841F08001016001681E
:1031400001F080010591016841F001010160016811
:1031500001F001010591016841F00201016001687F
:1031600001F002010591016841F008010160006869
:10317000DFF804A100F008000590002242F28E0161
:103180005046FEF7EFFDDFF8F4B048F212170022C8
:1031900039465846FEF7E6FD41F28B0900224946C2
:1031A0003748FEF7DFFD4FF400580125CDF80080C9
:1031B000CDE90154694650460394FEF7DBFC21201B
:1031C0000326CDE90006694602945046FEF7D2FC7C
:1031D0008E20CDE90005CDE9024669465046FEF74E
:1031E000C9FCCDE90054694658460295FEF7C2FC79
:1031F00000970396CDE9015469465846FEF7BAFC9C
:103200001027009769465046CDE90145FEF7B2FC0C
:10321000CDF800900396CDE9015469461848FEF7B1
:10322000A9FCCDE90074694615480294FEF7A2FC9A
:10323000012280215046FEF795FD01228021104891
:10324000FEF790FD012202215846FEF78BFD002279
:1032500002210B48FEF786FD012211460848FEF7C1
:1032600081FD012241465046FEF77CFD07B0BDE8D6
:10327000F08F000030380240000802400000024099
:10328000000402400B4810B50949016000217F226B
:10329000C0E90112FF22C0E9032141618161FFF70A
:1032A00055FA002803D0BDE81040FDF7F2BD10BD6F
:1032B00000280040444100207FB500F0D3FE80206C
:1032C0001449CDE90010142403251248CDE9025415
:1032D0000023114A11A1783802F052FD0D487838C8
:1032E00002F0B2FD0B4800231A460DA1803002F017
:1032F0001FFBCDE900544FF4007300220A490BA0D4
:1033000002F0A3FC0B49086004B0BDE8704002F075
:103310009BBD000098490020694502086C65640067
:103320006770735F73656D009D4402086770735F1B
:1033300074680000C4000020104810B50E490160F8
:103340004FF48271416000218160C1604FF40072CE
:103350000161C0E905123022C0E9072141628162A2
:103360000A21C162FFF76FFA002803D0BDE81040C0
:10337000FDF78FBD10BD000000300140644100200A
:10338000104810B50E4901604FF482714160002170
:103390008160C1604FF400720161C0E9051218221A
:1033A000C0E90721416281620A21C162FFF74BFA3D
:1033B000002803D0BDE81040FDF76BBD10BD000034
:1033C00000380040BC4100200C4810B50A4901609B
:1033D0004FF4E1314160002181600C22C160C0E9FD
:1033E00004128161C161FFF71CFD002803D0BDE814
:1033F0001040FDF74EBD10BD0010014020470020D9
:103400000C4810B50A4901604FF4E13141600021D8
:1034100081600C22C160C0E904128161C161FFF7C3
:1034200000FD002803D0BDE81040FDF732BD10BDFF
:1034300000440040644700200C4810B50A49016070
:103440004FF4E1314160002181600C22C160C0E98C
:1034500004128161C161FFF7E4FC002803D0BDE8DC
:103460001040FDF716BD10BD00480040A8470020E1
:1034700000680849884201D1FFF7A6BF0649884283
:1034800001D1FFF7BDBF0549884201D1FFF7D4BF85
:103490007047000000100140004400400048004018
:1034A0000C4810B54FF0A041016004214160022298
:1034B0000021C0E90321C0E9062101624162C16225
:1034C0000163FEF731FD002803D0BDE81040FDF791
:1034D000E0BC10BD14420020FEE7FEE72DE9F041FC
:1034E000044600680025C168490618D4C16841F047
:1034F0008001C160FEF73CFC06464FF47A78042751
:1035000007E000BFFEF734FC801B404501D9677718
:1035100001252068C068400601D4002DF2D028465D
:10352000BDE8F08170B5044600680025C16821F04F
:103530008001C16020688068800606D42046FFF7BD
:1035400067F910B1042060770125284670BD00009E
:1035500038B504461248134B0068B0FBF3F04FF443
:103560007A73584300906068B0F5827F0DD10B46A6
:10357000009200228021204600F016F870B1606DA4
:1035800040F020006065032038BD009830B1401E37
:10359000009020688068C0430006F6D5002038BD42
:1035A0000C00002000366E012DE9F8431E469146BE
:1035B00088460446089DFEF7DBFB401B351AFEF7E4
:1035C000D7FB074625480068C0F3CB30684338E096
:1035D000701C37D0FEF7CCFBC01BA84203D215B13C
:1035E000009860B32CE02068416821F0E001416060
:1035F0006068B0F5827F0BD1A068B0F5004F02D0B3
:10360000B0F5806F04D12068016821F040010160AD
:10361000A06AB0F5005F09D12068016821F400516B
:1036200001602068016841F400510160012084F8C4
:103630005100002084F850000320BDE8F8830025E5
:10364000401E00902068816838EA010004D0002103
:103650004945BDD10020F0E70121F9E70C00002029
:1036600010B501F03FFF02F087FCBDE8104001F00B
:1036700047BF000030B593B030216846FDF705F92B
:1036800014210CA8FDF701F91F480025016841F03D
:1036900080510160006800F0805011901B48016863
:1036A00041F4804101600068022400F480401190E0
:1036B000052000904FF48030019001200290800599
:1036C000CDE90640192008904FF4A870CDE909040F
:1036D00007200B906846FEF783FE08B172B6FEE73E
:1036E0000CA90F2081E831004FF4A0500F904FF447
:1036F0008050109005210CA8FEF760FD002801D035
:1037000072B6FEE713B030BD403802400070004092
:1037100070B5194C2068194A10F00C01184804D0F3
:10372000184D042903D0082903D002601BE005606E
:1037300019E01149091F0B68C3F380560B6803F0A9
:103740003F0316B1B5FBF3F201E0B2FBF3F20B68F5
:103750000968C3F388135A43C1F30141491C490066
:10376000B2FBF1F101602168074AC1F30311515C1A
:103770000268CA40026070BD083802400024F400AC
:103780000C00002040787D01406D0208024801686D
:1037900041F470010160704788ED00E00148FFF7D7
:1037A00080BA0000CC000020F0B50268254C264D00
:1037B000264E274F274B4FF0804CA04209D0604542
:1037C00007D0A84205D0B04203D0B84201D09842F9
:1037D00004D122F0700E4A6842EA0E02A0421BD0C9
:1037E000604519D0A84217D0B04215D0B84213D0C6
:1037F000984211D0184DA8420ED0184DA8420BD0B7
:10380000174DA84208D0174DA84205D0164DA84222
:1038100002D0164DA84203D122F44075CA682A434B
:103820004D6922F080022A4302608A68C2620A68F7
:103830008262A04201D0984201D10969016301214D
:103840004161F0BD0000014000040040000800405C
:10385000000C0040000401400040014000440140D1
:103860000048014000180040001C004000200040BB
:1038700070B5044600680169E26821F440511143C3
:1038800001612169A068E269084361691143084345
:103890002168CA6849F20C639A430243CA602068EF
:1038A0004169A26921F440711143416131492068A5
:1038B000884202D03049884202D1FEF74FFD01E034
:1038C000FEF73CFDE2690023192164253226B2F59A
:1038D000004F626828D0A0FB0101930F9200FCF713
:1038E00065FD0146B0FBF5F06FF01802504301EBA7
:1038F000800006EB0010B0FBF5F000F0F002B1FB29
:10390000F5F002EB0012B1FBF5F06FF0180358432D
:1039100001EB800006EB0010B0FBF5F000F00F00AB
:1039200021681044886070BDA0FB010192185B41C2
:10393000FCF73CFD0146B0FBF5F00201B1FBF5F0F0
:103940006FF01803584301EB800006EBC000B0FB9A
:10395000F5F000F0F80002EB4002B1FBF5F058433F
:1039600001EB800006EBC000B0FBF5F000F00700B3
:10397000D6E7000000100140001401402DE9F0419D
:10398000984617460E460446069D27E0681C25D03B
:103990002DB1FEF7EDF9A0EB0800A8421ED9206872
:1039A0000C3050E8001F21F4D07140E80012002ACA
:1039B000F5D12068143050E8001F21F0010140E8E3
:1039C0000012002AF5D1202084F83D0084F83E0042
:1039D000002084F83C000320BDE8F08120680068E6
:1039E00036EA000004D00020B842CFD00020F3E730
:1039F0000120F9E71F4B30B41A681068C0438006F5
:103A000003D51068C043000722D45068C1B21A48D9
:103A100001711468E443240702D46FF008041460B1
:103A20000478144A5032ACB10478012C10D1C48807
:103A30001155C288521CC2800289521C0281002288
:103A40000A290FD0C188632902D3C2800281027083
:103A500030BC70472429FBD111700121C180018144
:103A60000170F5E7C28002210170586C30BC01F092
:103A700071BF0000F8470020AC00002070B504467C
:103A800006990A9E049D0D98012916D0E06840F021
:103A90004000E060204600F02BF8A16B1EB321F43B
:103AA0008031A163012D07D1A16841F00601A16019
:103AB000A16841F02001A16070BDA16B21F48031AB
:103AC000A163E168094A1140E160E16821F4401115
:103AD000E160012803D1E06840F48010E0602046F6
:103AE00000F006F8DEE741F48031DAE7BFFFBDFF02
:103AF00008B500220D490092009B5B1C00938B428D
:103B00000CD80369002BF7DA0092026942F0010237
:103B10000261009A521C00928A4201D9032008BD1A
:103B20000269D207F5D1002008BD0000400D030056
:103B3000D0F8001E21F00301C0F8001ED0F80418D0
:103B400041F00201C0F80418002070472DE9F04F41
:103B500000250E460446DDF82CC0DDF824B0109F89
:103B60002846294604EB8002C2F80411401C0F28A5
:103B7000F8D32046C7B1806B20F40012A263A06B7B
:103B800040F40022A26308468846C4F8000ED4F828
:103B900000182046C4F80018BCF1010F16D0D0F868
:103BA000001841F0030116E0D0F8040840F00202CA
:103BB000C4F80428A06B40F40012A263A06B20F4A8
:103BC0000022A263A06B20F48022DBE7D0F800186B
:103BD0000BB141F00101C0F80018102100F094F879
:103BE00000B10125204600F071F800B101254046E2
:103BF000C4F81088C4F81488C4F81C8800214FF059
:103C000000694FF0904A4FF67F3314E004EB411205
:103C1000D2F800C9BCF1000F06DA11B1C2F800A950
:103C200004E0C4F8009901E0C2F80009C2F81009E4
:103C3000C2F80839491C8E42E8D8002115E000BFBF
:103C400004EB4112D2F800CBBCF1000F06DA11B13F
:103C5000C2F800AB04E0C4F8009B01E0C2F8000B1E
:103C6000C2F8100BC2F8083B491C8E42E8D8D4F8C1
:103C7000101821F48072C4F81028A0616FF0804001
:103C80006061BBF1000F03D1A06940F01000A0619A
:103C9000A06909490843A0610C9818B1A06940F0D7
:103CA0000800A061012F03D1A06904490843A06165
:103CB0002846BDE8F08F000000383C80040000403A
:103CC000816821F0010181600020704708B5002261
:103CD0000C490092009B5B1C00938B420AD803693D
:103CE000002BF7DA009210220261009A521C009217
:103CF0008A4201D9032008BD0269D206F5D400200A
:103D000008BD0000400D030018B500230D4A0093C4
:103D1000009C641C009494420CD80469002CF7DACF
:103D20000093202343EA811101610099491C00910D
:103D3000914201D9032018BD01698906F5D40020FC
:103D400018BD0000400D030070B50446C068002592
:103D500020F0C040E060012901D079B120E0E068A6
:103D600040F00050E0600120FDF73EFE60696D1CF0
:103D700010F0010F10D1322DF5D30DE0E06840F0C6
:103D80008040E0600120FDF72FFE60696D1C10F09F
:103D9000010F01D0322DF5D3322D01D0002070BD9E
:103DA000012070BDFEE70907090E002804DB00F1C1
:103DB000E02080F80014704700F00F0000F1E020D0
:103DC00080F8141D70470000002807D00E4910F03D
:103DD000FF0F04D051FA80F00078401C704710F4B7
:103DE0007F4F04D0C0F30720085C0930704710F4FF
:103DF0007F0F04D0C0F30740085C1130704701EB1F
:103E00001060007819307047586D02082DE9F04FA6
:103E100089B092468B460646002400E0641C305D63
:103E2000202803D0092801D05C45F7D34FF0FF3894
:103E30007CB3194804F10609184F056811E0062201
:103E400017A12868FCF731FC50B928682246314692
:103E5000801DFCF72AFC18B9296811F8090020B167
:103E60000C3538688542EAD314E0AC688CB1202167
:103E70006846FCF70AFD6A465946304600F0AAFF3C
:103E800038B16946A047CAF80000002009B0BDE873
:103E9000F08FFFE74046F9E79000002094000020F3
:103EA0005F5F636D645F00002DE9FC411F460446BF
:103EB000DDE90831DDE90A65143040600060C4E9DD
:103EC0000827C4E90A310A46232118461C3401F0A8
:103ED00007FCD4E903014218D4E90101104B121F79
:103EE00001F0E2FA44F81A0B002004F801690D4AC7
:103EF00004F8036BE4E8020544F8105901C404F81F
:103F00003C0B01C444F87409009023460190194603
:103F100004F1440002F0C4F80020BDE8FC81000078
:103F2000995C0208B75E020810B5029C24F00104F7
:103F30004472C0E907120021C0E909311430406021
:103F4000006010BD143001F030BB70B50546FCF7C1
:103F500093F9296F044609B1284688472046BDE8F1
:103F60007040FCF78DB9000010B51BA001F0D6FA27
:103F70001C4C21781CA001F0D1FA2078C00702D097
:103F80001FA001F0CBFA2078800702D51FA001F016
:103F9000C5FA2078400702D51FA001F0BFFA2078AB
:103FA000000702D520A001F0B9FA2078C00602D59A
:103FB00020A001F0B3FA2078000607D509480F3099
:103FC0000168BDE810401DA001F0A8BABDE810408E
:103FD0001EA001F0A3BA0000627573206661756CC3
:103FE000743A0A0029ED00E05343425F43465352BE
:103FF0005F424653523A3078253032582000000054
:10400000494255534552522000000000505245434A
:104010004953455252200000494D5052454349539F
:104020004552522000000000554E53544B45525209
:104030002000000053544B45525220005343422D60
:104040003E424641523A253038580A000A000000E4
:1040500010B500F017FB002010BD10B500F0E8FB14
:10406000002010BD10B500F039F8BDE8104000F098
:1040700001B8000070B5262213491448FCF7B1FBC3
:10408000114DE88C114CE084A86AA062A88DA0852F
:10409000E88DE085286B2063092205F1340104F1E5
:1040A0003400FCF79EFB95F83D0084F83D0095F840
:1040B0003E0084F83E00286C206405486064054892
:1040C000A0640548E06470BDA8470020F8470020C0
:1040D000184A0020C1650208A9650208044803497E
:1040E00001600449416004498160704785640208A9
:1040F000EC4700209564020865640208104810B57A
:10410000416991F82110890703D40E4900200870F5
:1041100013E0016921B180220A48FCF7DDFB0CE0C5
:1041200000F056FE08B108A100E009A10548FCF71F
:1041300079FA09A10348FCF703FB024810BD00000F
:1041400090000020704000206D7368200000000087
:1041500066696E73682000003E00000003494969EB
:1041600011F8212F60F341020A707047900000207F
:10417000014AC2E900017047900000207CB5164951
:104180001648FFF7F5FF7821012000F06FFF144C6F
:104190006061D0B10A211520CDE900014FF48063A0
:1041A0000022104910A001F050FD054600231A46D8
:1041B0000FA1606901F0BCFB0120FFF7CFFF15B133
:1041C000284601F041FE00207CBD0BA001F0A6F9BD
:1041D0004FF0FF307CBD000074710208CC70020803
:1041E0009000002011420208747368656C6C000036
:1041F00073687278000000006E6F206D656D6F72DD
:104200007920666F72207368656C6C0A000000008C
:10421000984D686910F8211F41F001010170FFF706
:104220006DFF01F07BF9002600F0FAFF0400FBD4DB
:104230001B2C07D0686990F82010012907D00229AB
:104240000ED017E06969012081F82000ECE75B2CB3
:1042500002D080F820600DE0022180F82010E3E712
:1042600080F82060412CDFD0422CDDD0442C38D0A7
:10427000432C43D0002CD7D0FF2CD5D0092C4ED0C6
:104280007F2C75D0082C73D00D2C70D00A2CFCD04C
:10429000B0F87210502901D3A0F87260B0F87430F1
:1042A000B0F872108B427DD2CA1A00F1220123307D
:1042B0001944184401F0FAF96869B0F87410223012
:1042C0000C54686990F82110C90706D0B0F8741032
:1042D0002230014468A001F021F96869B0F8744007
:1042E000A5E0B0F8740000289ED064A001F016F993
:1042F000686930F8741F491E018095E7B0F87410A2
:10430000B0F8722091428FD22230095C5CA001F09B
:1043100005F9696931F8740F401C088084E70024AE
:1043200003E056A001F0FAF8641C6869B0F8740064
:10433000A042F6DC6C6953A0223401F0EFF800F0E3
:1043400047FD012802D1204600F07EFCFFF7D6FE93
:10435000014622464CA001F0E1F868692230FCF7E2
:1043600085F9696921F8720F48805DE700E03DE05A
:10437000B0F87420002AC0D0B0F87210521E491E46
:1043800089B293B2A0F87210A0F87430994224D97F
:10439000CA1A00F1230122301944184401F086F9A9
:1043A000686900E049E0B0F8721022300E54686984
:1043B000B0F874102230014435A001F0AFF86869FC
:1043C000B0F8744003E02DA001F0A8F8641C6869FF
:1043D000B0F87200A04290DBF5E72FA001F09EF844
:1043E0006869B0F8721022300E541DE700F0F0FC3E
:1043F00001280DD1686990F82100C00702D021A0E2
:1044000001F08CF86869B0F87210223000F072FC8C
:10441000FFF774FE01F082F8686950212230FCF742
:1044200012FA686922E015A001F078F8641C686946
:10443000B0F87200A042F6DC0AE022300C54686941
:1044400090F82100C00703D021460DA001F066F8C6
:104450006869B0F87210491C89B2A0F87210B0F8FF
:104460007420521CA0F874205029BED320F8726F1B
:104470004680D9E690000020257300000800000067
:10448000256300000A00000025732573000000006A
:10449000082573202008000008200800FCF762FFB0
:1044A0000020FCF727FD084C4FF0FF352946074850
:1044B00001F075FA0548002211462030FCF7FAFE9B
:1044C0006068401C6060F1E7C4000020184A0020CA
:1044D00010B5124C2068800702D511A001F01EF81B
:1044E0002068400011D50D48C01E007808B1FFF7C4
:1044F0003BFD0A48001F007808B100F039FB07486F
:10450000801E008808B101F0E7FF2068002804DA67
:10451000BDE8104008A001F001B810BD2CED00E08E
:104520006661696C656420766563746F7220666588
:104530007463680A00000000646562756720657630
:10454000656E740A0000000010B502A000F0E6FFDE
:10455000002010BD48656C6C6F2052542D54687259
:10456000656164210A000000094D4FF47A7401224C
:1045700002212846FDF7F6FB204601F08AFB0022C7
:1045800002212846FDF7EEFB204601F082FBEEE714
:104590000008024070B50CA000F0C0FF0F48104D9D
:1045A00004680BE002220FA12068FCF77EF820B11E
:1045B000D4E900120CA000F0B1FF0C34286884424A
:1045C000F0D3002070BD00002D2D46756E63746918
:1045D0006F6E204C6973743A0A000000900000204E
:1045E000940000205F5F0000252D313673202D2DB3
:1045F0002025730A000000002DE9F04104461E4604
:1046000017460D46084601F0D9F8001D20602572B6
:1046100000206760C4E90360BDE8F0812DE9F04146
:104620000D4600212961E96891B1297A81B12E688E
:1046300088B10446FBF720FE0146A4F10C002A7A5B
:10464000007A20F08000904209D00846FBF718FE5F
:104650000020BDE8F0813446FBF70EFE0146686895
:1046600000272468B44201D1002404E010C0EA68A5
:104670007F1CBA42F5D10846FBF702FE20462F61A7
:10468000E7E7000010B5074C07A0E16800F046FF1F
:104690000AA0216900F042FF6169BDE810400CA04A
:1046A00000F03CBF18000020746F74616C206D65D1
:1046B0006D6F72793A2025640A0000007573656495
:1046C000206D656D6F7279203A2025640A00000024
:1046D0006D6178696D756D20616C6C6F6361746577
:1046E00064206D656D6F72793A2025640A000000C0
:1046F0002DE9F04194B0002733A408230BAA02212E
:1047000005A8FFF779FF082080460146224631A020
:1047100000F004FF404600F0C5FB35A000F0FEFEAF
:1047200005A93846FFF77AFF0746002642E00BA8A6
:1047300050F826400C3CFBF79FFD217A9DF81C2089
:1047400021F08001914202D0FBF79AFD31E0FBF7A6
:1047500097FD04F114006169054681421ED000F006
:1047600009FFA18BCDE9001023460822414626A06F
:1047700000F0D4FE2C680BE0A4F1140126A000F098
:10478000CDFE2068A84202D024A000F0C7FE246815
:10479000AC42F1D115A000F0C1FE0AE000F0EAFE43
:1047A000A18BCDE900102346082241461CA000F051
:1047B000B5FE761C0998B042B9DC002FB0D114B018
:1047C0000020BDE8F081000073656D6170686F7254
:1047D00065000000252D2A2E732076202020737579
:1047E0007370656E64207468726561640A0000000D
:1047F000202D2D2D202D2D2D2D2D2D2D2D2D2D2D03
:104800002D2D2D0A00000000252D2A2E2A7320258B
:104810003033642025643A00257300002F00000027
:10482000252D2A2E2A7320253033642025640A0082
:104830002DE9F041B4B000263CA408232CAA0121A4
:1048400026A8FFF7D9FE08208046014622463948AF
:1048500000F064FE404600F025FB37A000F05EFE4D
:1048600026A93046FFF7DAFE0646002554E02CA8BC
:1048700050F825400C3CFBF7FFFC0746207A9DF8DA
:10488000A01020F08000884203D03846FBF7F8FCE7
:1048900041E07822214607A8FBF7A3FF3846FBF743
:1048A000EFFC94F83500009023460822414632A0E0
:1048B00000F034FE94F8340000F00F00012807D017
:1048C000022807D040B1042808D0032808D00AE005
:1048D0002CA006E02EA004E030A002E032A000E010
:1048E00034A000F01BFEA06A014600E0401C0278E4
:1048F000232AFBD0E26A401A101A64235843B0FB03
:10490000F2F3276B206CCDE90007E069081A8118E3
:104910002BA000F003FE6D1C2A98A842A7DC002EF5
:104920009ED134B00020BDE8F0810000746872654B
:10493000616400007C6E0208202D2D2D20202D2D7D
:104940002D2D2D2D2D202D2D2D2D2D2D2D2D2D2DA4
:10495000202D2D2D2D2D2D2D2D2D2D20202D2D2DAE
:104960002D2D2D20202D2D2D2D2D2D2D2D2D2D209E
:104970002D2D2D0A00000000252D2A2E2A7320251A
:1049800033642000207265616479202000000000FB
:104990002073757370656E640000000020696E6995
:1049A000742020200000000020636C6F73652020BD
:1049B000000000002072756E6E696E6700000000D6
:1049C000203078253038782030782530387820200D
:1049D00020202530326425252020203078253038CD
:1049E0007820253033640A00F0B593B0002626A461
:1049F00008230BAA0A2104A8FFF7FEFD0827224678
:104A0000394623A000F08AFD384600F04BFA2AA070
:104A100000F084FD04A93046FFF700FE064600259D
:104A200024E00BA850F825400C3CFBF725FC217A2C
:104A30009DF8182021F08001914202D0FBF720FC64
:104A400013E0FBF71DFCD4E90901CDE90001234681
:104A50000822394621A000F061FD607AC00701D02C
:104A600024A000E026A000F059FD6D1C0898A84283
:104A7000D7DC002ECED101F079FA014624A000F057
:104A80004DFD13B00020F0BD74696D65720000002B
:104A9000252D2A2E732020706572696F646963204A
:104AA000202074696D656F757420202020202020DF
:104AB000666C61670A000000202D2D2D2D2D2D2DF7
:104AC0002D2D2D202D2D2D2D2D2D2D2D2D2D202D30
:104AD0002D2D2D2D2D2D2D2D2D2D0A00252D2A2E60
:104AE0002A7320307825303878203078253038788F
:104AF000200000006163746976617465640A0000D7
:104B000064656163746976617465640A000000001D
:104B100063757272656E74207469636B3A307825C0
:104B20003038780A0000000010B5FDF72FF9FEF7C5
:104B3000A1FDFEF7EFFAFEF7A5FAFEF7C7FAFEF7BA
:104B4000A1FBFEF7F9FBFEF71BFCFEF73DFCFEF7B1
:104B500057FCFEF771FCFEF7A3FCFEF7ADFB00204F
:104B600010BD10B500F09EFABDE81040FFF7DCBFA5
:104B700010B518A000F0D2FC1B4C21781BA000F04F
:104B8000CDFC2078C00702D01EA000F0C7FC207822
:104B9000800702D51EA000F0C1FC2078000702D5D6
:104BA0001EA000F0BBFC2078C00602D51EA000F0BD
:104BB000B5FC2078000607D50B480C300168BDE82D
:104BC00010401CA000F0AABCBDE810401D4800F039
:104BD000A5BC00006D656D206D616E616765206626
:104BE00061756C743A0A000028ED00E05343425F9F
:104BF000434653525F4D4653523A3078253032582F
:104C0000200000004941434356494F4C200000001A
:104C10004441434356494F4C200000004D554E53EC
:104C2000544B4552522000004D53544B4552522094
:104C3000000000005343422D3E4D4D41523A253075
:104C400038580A00486502082DE9F04780460025DB
:104C500000782C4618B12248224F066831E0BDE8A2
:104C6000F0470021084600F077B806221EA1306800
:104C7000FBF71BFD20BB306800F106094046FBF73F
:104C8000F5FC024649464046FBF70FFDC0B925B981
:104C90004C464846FBF7EAFC05464946204601E0FB
:104CA000401C491C02781AB10B780BB19A42F7D01C
:104CB000001BA84200DA054649460DA000F02EFC74
:104CC0000C3638688642D0D3002C06D02A462146BE
:104CD0004046BDE8F04700F019BFBDE8F08700008E
:104CE00090000020940000205F5F636D645F00000F
:104CF00025730A0038B5044601E0491E641C59B109
:104D000020782028F9D00928F7D06A462046FFF7F6
:104D10007DF818B1204604E0002038BD009838BD69
:104D2000401C0178202901D00029F9D1002101700F
:104D3000214603A000F0F2FB4FF0FF3038BD000029
:104D400025733A20636F6D6D616E64206E6F742001
:104D5000666F756E642E0A0070B50EA000F0DEFB63
:104D60001348144D04680CE0062213A12068FBF7D9
:104D70009CFC28B9D4E9001211A0891D00F0CEFBDB
:104D80000C3428688442EFD310A000F0C7FB002049
:104D900070BD000052542D546872656164207368C0
:104DA000656C6C20636F6D6D616E64733A0A000010
:104DB00090000020940000205F5F636D645F00003E
:104DC000252D313673202D2025730A000A0000009E
:104DD0000120704770B5002315461C461A464BE06B
:104DE00000F8012B5B1C0678202E01D0092E01D182
:104DF0008B42F5D3082C11D321A000F08FFB0026A5
:104E000006E000BF55F8261025A000F087FB761CB1
:104E1000A642F7D321A000F081FB2FE08B422DD2D8
:104E2000F6B2222E03D045F82400641C1BE0401C7F
:104E300045F824005B1C641C08E05C2E04D1467815
:104E4000222E01D1401C5B1C401C5B1C0678222ECC
:104E500001D08B42F1D38B4210D200F8012B5B1CA6
:104E60000AE0401C5B1C0678202E03D0092E01D0DE
:104E70008B42F6D38B4201D28B42B4D3204670BD15
:104E8000546F6F206D616E792061726773202120ED
:104E90005765206F6E6C79205573653A0A000000E3
:104EA0002573200010B5044602E003A000F036FB95
:104EB000641EFAD210BD00002D00000030B5134969
:104EC00043680A68134402F1080498420DD05D88D3
:104ED0005DB94D68AB4208D08D689D4200D18860B5
:104EE0005D6845605B68851A1D5183681344834281
:104EF0000BD05D88002D08D18D68854200D18B6074
:104F0000416859604068991A015130BD180000206D
:104F10002DE9F04F85B09946DDE90EA5109CAB4612
:104F2000630602D5DFF814C103E0DFF810C1ACF16D
:104F3000110CE30601D524F00104E30701D030236E
:104F400000E0202300260493A3070BD5002A02DAF1
:104F50002D26524206E0630701D52B2602E02307E7
:104F600000D520260023EE4622B930228DF80020FD
:104F700001230CE0B9F10A0F14D002F00F08120956
:104F80001CF808800EF803805B1C002AF2D1AB42AB
:104F900000DD1D46AAEB050214F0110F4FF02007AB
:104FA00008D015E00A27B2FBF7F807FB1828B2FB78
:104FB000F7F2E5E73EB1002A05DD521E03E0884224
:104FC00000D20770401CB2F1000CA2F10102F6DC25
:104FD00026B1884200D20670401C521EE40605D558
:104FE00008E0884201D2049C0470401C141EA2F107
:104FF0000102F6DC30242E466D1E9E420ADD8842F8
:1050000000D20470401CF6E7884201D2E55C0570CE
:10501000401C00E074461D1EA3F1010307DDBBF137
:10502000000FF1D103E0884200D20770401C131E2C
:10503000A2F10102F7DC05B0BDE8F08F696E02084D
:105040001CB514210A20CDE900014FF48063002231
:10505000034904A000F0F9FDBDE81C4000F0F4BED7
:10506000634B02086D61696E0000000070B5484333
:10507000044600F0A3FA050003D02246002100F008
:105080002FFB284670BD000070B5044C044D02E0B3
:1050900020688047241DAC42FAD370BDB870020866
:1050A000C070020870B5044C044D02E020688047CF
:1050B000241DAC42FAD370BDC0700208C87002084B
:1050C00010B5FBF7D9F8044A5188491C5180BDE856
:1050D0001040FBF7D5B800006000002010B5FBF7CA
:1050E000CBF80B4C6188491E09B2618000290ADCAB
:1050F00000216180FBF7C4F86068002807D0BDE894
:10510000104000F09DBBBDE81040FBF7B9B810BDE2
:105110006000002070B5002833D01A4D29688842FD
:105120002FD3696888422CD2A0F10C044FF0FF31D4
:10513000154800F034FC60884FF4F55610B1208813
:10514000B04208D011A000F0E9F923886288214616
:1051500015A000F0E3F9002060802680A868844252
:1051600000D2AC6029686068611A401A2969081A7F
:1051700028612046FFF7A2FEBDE87040024800F01B
:10518000E9BB70BD180000200C030020746F20667E
:1051900072656520612062616420646174612062CF
:1051A0006C6F636B3A0A00006D656D3A20307825AC
:1051B0003038782C207573656420666C61673A20FE
:1051C00025642C206D6167696320636F64653A20F4
:1051D0003078253034780A00004870472C040020CD
:1051E000004870472C40002010B5FCF7CFFDFEF7BB
:1051F00041FAFEF78DFAFDF79BF84FF47A71B0FB98
:10520000F1F0FDF7C8FCFFF73FFFFFF7E9FF0446A9
:10521000FFF7E2FF2146BDE8104000F08BBC000024
:10522000084810B500684FF0FF340168C94389068B
:1052300002D44068C4B202E00A2000F0B9FDE0B236
:1052400010BD00002C400020F8B506460D200F4987
:105250008DF80000002481F83C40304600F04EFC00
:1052600005460FE0305D0A2805D101231A4669463C
:105270000648FDF7ADFE012331191A460348FDF734
:10528000A7FE641CAC42EDD3F8BD00002C4000200A
:1052900070B531490546283009682C1D11B1884781
:1052A000002857D02DA0216C00F038F92FA0616A9A
:1052B00000F034F931A0A16A00F030F933A0E16ABE
:1052C00000F02CF935A0216B00F028F937A06168B7
:1052D00000F024F939A0A16800F020F93BA0E168B2
:1052E00000F01CF93DA0216900F018F93FA06169A8
:1052F00000F014F941A0A16900F010F943A0E169A0
:1053000000F00CF945A0216A00F008F947A0616B94
:1053100000F004F949A0A16B00F000F94BA0E16B8B
:1053200000F0FCF82878400708D500F067FD01463A
:105330004AA000F0F3F8FFF77BFA02E04FA000F07C
:10534000EDF82878C00602D453A000F0E7F8FFF784
:10535000BFF8FEE770BD0000800000207073723A55
:10536000203078253038780A000000007230303A5A
:10537000203078253038780A000000007230313A49
:10538000203078253038780A000000007230323A38
:10539000203078253038780A000000007230333A27
:1053A000203078253038780A000000007230343A16
:1053B000203078253038780A000000007230353A05
:1053C000203078253038780A000000007230363AF4
:1053D000203078253038780A000000007230373AE3
:1053E000203078253038780A000000007230383AD2
:1053F000203078253038780A000000007230393AC1
:10540000203078253038780A000000007231303AB8
:10541000203078253038780A000000007231313AA7
:10542000203078253038780A000000007231323A96
:10543000203078253038780A00000000206C723A5D
:10544000203078253038780A000000002070633A58
:10545000203078253038780A0000000068617264D6
:10546000206661756C74206F6E207468726561646B
:105470003A2025730D0A0D0A00000000686172646D
:10548000206661756C74206F6E2068616E646C6557
:10549000720D0A0D0A0000004650552061637469C0
:1054A0007665210D0A00000070B50446121D22F039
:1054B000070000220A4D443840F82250521C112A9D
:1054C000FAD3416200218162C16200F134020163BA
:1054D00082E81A004FF080730364016070BD000021
:1054E000EFBEADDE10B5FAF7C7FE044A1178491CCD
:1054F0001170BDE81040FAF7C3BE00001400002090
:1055000010B5FAF7B9FE044A1178491E1170BDE8CA
:105510001040FAF7B5BE0000140000200FB47F2140
:1055200010B503AB0448029A00F028FE0248FFF7CA
:105530008BFE10BC5DF814FB8C02002002685160E9
:1055400002680A6001604860704702685160026842
:105550000A600160486070470268516002680A6032
:105560000160486070474268116042684A6041606B
:10557000086070470246002100E0491C0068904224
:10558000FBD108467047D0E900124A60D0E900120A
:105590001160406000607047D0E900124A60D0E9B5
:1055A00000121160406000607047D0E900124A604C
:1055B000D0E9001211604060006070472DE9F047AB
:1055C000002807D0374CC01C20F00306E068864254
:1055D00002D90020BDE8F0870C2E00D20C264FF037
:1055E000FF31314800F0DBF9D4F808C02168E768E2
:1055F000ACEB0100BA1B4FE00D186B88E3BB6B6886
:105600001B1A0C3BB34246D36A6806F11803121A00
:105610000C3A4FF001094FF4F55A9A422DD38319F1
:105620000C33CA184FF00008A2F800A0A2F80280BC
:10563000D5F80480C2E901806B60A5F8029050683B
:105640000C37B84202D001F108028350206930447F
:105650000C3020616269824200D26061A5F800A02E
:10566000654512D1A06842887AB1626890420CD038
:1056700040680844A060F6E70DE0A5F8029068686D
:105680006A1A801A22691044E3E7074800F062F9B9
:1056900005F10C009EE768688242ADD8024800F030
:1056A00059F996E7180000200C03002010B50346B6
:1056B000994211D28C189C420ED9811804E000BF87
:1056C00014F8013D01F8013D521EF9D210BD00BF92
:1056D00011F8014B03F8014B521EF9D210BD000026
:1056E00010B50346CCB2042A1AD3810718D1194643
:1056F00044EA042343EA034306E008C1103A08C120
:1057000041F8083B41F8043C102AF6D201E008C1F8
:10571000121F042AFBD20B4602E000BF03F8014B24
:10572000521EFBD210BD2DE9F0410F46064600F097
:1057300045F80546C068FFF741FF040019D0002175
:10574000EA68FFF7CDFF2672002060720822394612
:10575000204600F0DBF9FAF78FFD064604F10C0154
:10576000281DFFF7EBFE3046FAF78AFD2046BDE81C
:10577000F0810020FBE770B5044600202072FAF7A4
:105780007BFD054604F10C00FFF7FDFE2846FAF705
:1057900077FD2046BDE87040FFF7BCBC70B50446FD
:1057A00000202072FAF768FD054604F10C00FFF7AF
:1057B000EAFE2846BDE87040FAF762BD074A0021BC
:1057C00002EB01131B78834202D102EB01107047F8
:1057D000491C0329F4DB0020704700003000002042
:1057E0002DE9F041044616460D460846FFF7E6FF50
:1057F0000746FFF765FC381D796800E009688142BB
:10580000FCD1FFF76BFC45F0800020720822314686
:10581000204600F07BF9FAF72FFD054604F10C0154
:10582000381DFFF78BFE2846BDE8F041FAF728BD8A
:10583000007A000601D50120704700207047000063
:1058400070B5FAF719FD114C05466088B0B9A0682B
:10585000FEF7BAFA0E49401E626851F8301014394A
:1058600091420BD020700B486160007801F11C015F
:10587000002802F11C0006D0FAF705FD2846BDE815
:105880007040FAF7FDBCFAF7FEFCF7E76000002075
:105890002C0300201400002010B50446FAF7ECFC9D
:1058A000024694F834000E4920F00F00401C84F8A2
:1058B000340094F8350001EBC00104F114004B688A
:1058C00018604B68A361486006486161A16B8368FA
:1058D00019438160BDE810401046FAF7D1BC0000C2
:1058E0002C0300206000002010B50446FAF7C4FC29
:1058F00004F11401D1E900235360D1E900231A60B7
:10590000A161616194F83520074951F8323001EB0B
:10591000C2018B4204D10549A36B8A689A438A600D
:10592000BDE81040FAF7ACBC2C030020600000205A
:105930002DE9F04116460A461F4605460221FFF7AB
:105940004FFF05F11404AC616C61AE836F720020EF
:10595000BDE8F08170B50446FAF78EFC0546606933
:1059600004F11401884208D0143800F028FA2846BF
:10597000FAF786FCFFF764FF09E0A08B4FF6FF7192
:10598000884206D2401CA0832846FAF779FC002002
:1059900070BD2846FAF774FC6FF0020070BD2DE967
:1059A000F3410446FAF768FC0746A08B28B1401E75
:1059B000A0833846FAF764FC46E0019870B100F025
:1059C0001DFA06460020306304F11405647A30465F
:1059D00000F050FAF4B1012C21D106E03846FAF774
:1059E0004FFC6FF00100BDE8FC812C680EE096F8DA
:1059F000351094F82120A4F11400914205D206F14B
:105A000014011430FFF7AFFD02E02468AC42EED180
:105A1000AC4204D106F114012846FFF7A4FD019819
:105A2000002809DD06F1440001AA0021044600F027
:105A3000FFFA204600F048FB3846FAF721FCFFF752
:105A4000FFFE306B0028CED10020CCE708B509A0BE
:105A5000FFF764FD0AA0FFF761FD12A00090052387
:105A60000122032112A0FFF759FDBDE8084018A04C
:105A7000FFF754BD0A205C207C202F0A00000000A4
:105A80002D205254202D2020202020546872656142
:105A900064204F7065726174696E67205379737406
:105AA000656D0A0041756720313420323032330091
:105AB000202F207C205C202020202025642E25649F
:105AC0002E2564206275696C642025730A0000002D
:105AD0002032303036202D203230323020436F706B
